:020000000C945E
:100002004A000C9400000C946B000C9400000C94B9
:1000120000000C9400000C9400000C9400000C945E
:1000220000000C9400000C9400000C9400000C944E
:1000320000000C9400000C9400000C9400000C943E
:1000420000000C9400000C9400000C9400000C942E
:10005200000030313233343536373839000041440C
:10006200432056616C75653A005468726573686F17
:100072006C643A0080C000000B00780154000B0051
:10008200600160000B006B016B00040088017600C8
:100092000000F894EE27ECBBF1E0FBBFEBBFE5BF3D
:1000A200EAE7F0E085919591009761F0A591B5910D
:1000B20005901590BF01F00105900D920197E1F7AF
:1000C200FB01F0CFEFE5EDBFE4E0EEBFC0E6D1E02B
:1000D2000C94A9000A921A92FA926A937A938A93DA
:1000E2009A93AA93BA93EA93FA93EFB7EA93E091B9
:1000F2007601F0917701E0938401F0938501ECE0C1
:1001020031D138D1A081DDD0EDE02CD13FD12AD13F
:100112000E94D60127D10E94E501E991EFBFF99132
:10012200E991B991A9919991899179916991F990FE
:10013200199009901895AA93E881E7B98BE18A95FD
:10014200F1F7369A349BFECF349AE4B1F5B108C187
:10015200E0E0EABBEBBBE7BBE8BBE3E0E4BBE0E02B
:10016200E5BBE1BBE8E0E2BBE0E0E3BFE2BFECBF3E
:10017200EFBDEEBDEDBDECBDE7BDE6BDEBBDEABD3D
:10018200E9BDE8BDE2BDE5BDE4BDE3BDE9BFEBB756
:10019200E068EBBFECE0E5BFE0E0E4BFE0E8EABF27
:1001A200E0E0EAB9E0E8E8B9E0E0E7B9E3EAE6B9B5
:1001B200E0E0E0BFEDB9E6BFA0E1A9D0789477D046
:1001C200A0E6B1E093D0E0E0EA93A1E063D0ABE631
:1001D200B1E08CD0A6E8B1E0ED91FD913196FE93AD
:1001E200EE933197E93EA3E0FA0720F1A0E0A3DF06
:1001F200E0937601F0937701ECE0EED0BBD0E081A2
:10020200E0938301A0917601B0917701B3D0A081F0
:1002120058D0EDE0E1D0BAD0DFD0C7D0DDD0D4D015
:10022200E0E0E0938601E0938701A99B02C0A998D0
:1002320001C0A99AE0918401F0918501A091760113
:10024200B0917701AE17BF0710F0A89A01C0A89825
:10025200C1CFFFCFAA93E8B3EF70AE2FE881E07F62
:10026200EA2BE8BB8DE08A95F1F7C29A8DE08A9578
:10027200F1F7C2988DE08A95F1F772C0AA93A8812E
:10028200E9DFE881E295E883A881E4DF85E88A95E1
:10029200F1F766C0AA93E881F0E0E857FE4FE081EB
:1002A200A981AE0FEBDF5980488022960895A2E023
:1002B2009BD0ACE0E3DFA1E097D0E0E04E2E5E2ED3
:1002C2000895AA93A881AA3011F0571448F0E0E0EB
:1002D200EA934394A42DDEDFA881AA3009F440C03A
:1002E2005394C09AA881CADFC0983AC0BA93AA931D
:1002F2001A93A981BA81ED91A983BA831E2FE030A6
:1003020019F0A12FDEDFF5CF188123960895AA9365
:10031200E7B3E06FE7BBBA9AB89AB99AC298C098A5
:10032200C1987880E881E058E0938A01E881E0543E
:10033200E0938B01A4E1B0E00E9401025AD059D0AF
:1003420058D0A0E287DF88EC90E00197F1F7A8E2AD
:1003520095DFA4E093DFA5E891DFA6E08FDFA7DFBA
:1003620021960895EA93A1E095DFA0918401B091CE
:1003720085010895E8EEF3E00E940B02DF01EAE056
:10038200F0E00E941E02E858FE4F0895E4E6F0E015
:100392000E940B02DF01EAE0F0E00E941E02E85830
:1003A200FE4FA0818EDFEEE00895EAE0F0E00E94C9
:1003B2000B02DF01EAE0F0E00E941E02E858FE4F65
:1003C200A0817FDFEFE00895EAE0F0E00E941E02E4
:1003D200E858FE4FA08175CFEA93A0E05BDFA091C1
:1003E2007601B0917701089549DFA3E0B0E00C9463
:1003F2000102A0E32FDF88EC90E00197F1F7089566
:10040200109639F080ED97E00197F1F7A8951197D2
:10041200C9F708950024112490E1AA0FBB1F001C04
:10042200111C0E1A1F0A18F40E0E1F1E01C0A16025
:100432009A9599F7FD01D0010895ECDFFD01089529
:00000001FF
