:100000000C9431000C945E000C9483000C9400005E
:100010000C9400000C9400000C9400000C94000060
:100020000C9400000C949A000C9400000C940000B6
:100030000C9400000C9400000C9400000C94000040
:100040000C9400000C9400000C9400000C94000030
:100050000C94000000000A00000006000400540098
:100060000000F894EE27ECBBF1E0FBBFEBBFE5BF6F
:100070008DE0A2E0BB27ED938A95E9F780E094E05C
:10008000A0E6ED930197E9F7EAE5F0E08591959117
:10009000009761F0A591B59105901590BF01F00111
:1000A00005900D920197E1F7FB01F0CFEFE5EDBF71
:1000B000E4E0EEBFC0E6D1E00C94D200EA93EFB7E3
:1000C000EA934420F9F4A99B0AC0E1E0E51519F48C
:1000D000660C6E2A03C0660CEEEF6E2212C0E1E0E1
:1000E000E51519F4990C9E2A03C0990CEEEF9E2297
:1000F000961429F4A89AE1E04E2E97D001C0A89852
:1001000098BA6BBA13C0EA93EFB7EA93442071F43C
:100110008CD0A99B07C0772021F4E1E07E2E9924A2
:10012000662404C0E1E0E71509F47724E991EFBF04
:10013000E99118950A92AA93BA93EA93FA93EFB7C2
:10014000EA93A0E6B1E0ED91FD913196FE93EE9336
:10015000A0916001B0916101E8ECF0E06FD0E0E0C7
:100160000E942501E02121F0E0E0E9BFE1E05E2E00
:10017000A0916001B0916101E4EFF1E05FD0E1E0B6
:100180000E942501E02131F0E0E0E9BF4424A89875
:100190009924E8BBE991EFBFF991E991B991A9914F
:1001A00009901895E0E0E0936201E0936301E2E0DA
:1001B000E3BFEFE0E1BDE0ECEBBFEBE0E5BF78943F
:1001C000A09AA19AA79AEFEFEABBE7BB8898909A0A
:1001D0008A98929A8B98939A6BBAA998AF98EBB732
:1001E000E06CEBBFEBE0E5BFE0E0E4BFE0ECEABFD2
:1001F000A895A2E6B1E0ED91FD913196FE93EE93C4
:10020000E031A7E2FA0750F0AF9B02C0AF9801C0FF
:10021000AF9AE0E0E0936201E0936301809902C04D
:10022000A99A01C0A998E4CFFFCFE1E0E9BF552426
:10023000E0E0E0936001E093610108950E942A01EB
:100240000E2EA0E0A899A1E00895EA17E1E009F0D8
:10025000EE270895EA17FB07E1E009F0EE2708957D
:00000001FF
