:040000000C94480014
:100004000C9400000C9400000C9400000C9400006C
:100014000C9400000C9400000C9400000C9400005C
:100024000C9400000C9400000C9400000C9400004C
:100034000C9400000C9400000C9400000C9400003C
:100044000C9400000C9400000C9400000C9400002C
:1000540030313233343536373839414443205661F0
:100064006C75653A004F43522056616C75653A00D1
:1000740080C00A00780154000B0060015E000B0090
:100084006B0169000200880174000000F894EE27F7
:10009400ECBBF1E0FBBFEBBFE5BF8DE0A2E0BB270B
:1000A400ED938A95E9F780E094E0A0E6ED9301975B
:1000B400E9F7E6E7F0E085919591009761F0A59165
:1000C400B59105901590BF01F00105900D9201972F
:1000D400E1F7FB01F0CFEFE5EDBFE4E0EEBFC0E6F2
:1000E400D1E00C948300AA93E881E7B98BE18A9567
:1000F400F1F7369A349BFECF349AE4B1F5B10C94FF
:10010400CE01E0E0EABBEBBBE7BBE8BBE4BBE5BB8D
:10011400E3E0E1BBE0E0E2BBE3BFE2BFECBFE3E866
:10012400EFBDE8E1EEBDE0E0EDBDECBDE7BDE6BD51
:10013400EBBDEABDE9BDE8BDE2BDE5BDE4BDE3BD9F
:10014400E9BFE5BFE4BFEAB9E0E8E8B9E0E0E7B950
:10015400E3E8E6B9E0E0E0BFEDB9E6BFA0E1F3D043
:100164007894C1D0A0E6B1E0DDD0E0E017D1ABE6F1
:10017400B1E0D8D016D148F0909A9198A0E0B3DFBE
:10018400E050F240F695E7951BC012D110F009D16A
:1001940008F008C090989198E0E0E0938601E0931D
:1001A400870112C005D180F49098919AA0E09BDF5A
:1001B400E050F2403196DF01EEEFFFEF0E94330290
:1001C400E0938601F0938701E0918601F091870125
:1001D400FBBDEABDA3E8B1E0ED91FD913196FE933C
:1001E400EE933197E93EA3E0FA0708F44DC0A0E08E
:1001F4007ADFE0937601F0937701ECE0E0D0E7D08A
:10020400E081E0938501A0917601B0917701DFD080
:10021400A08173D0EDE0D3D0E4E6F0E0E4D0EEE0EA
:10022400CED0EAE0F0E0DFD0EFE0C9D0EAE0F0E0E1
:100234000E944B02E3D0ECE0B1D0E4D0E858FE4F8A
:10024400E081E0938501DED0D9D0EDE0A7D0EAB516
:10025400F0E0DF01E4E6F0E0E2D0EEE09FD0EAB5C2
:10026400F0E0DF01EAE0F0E0DAD0EFE097D0EAB5C1
:10027400F0E0DF01EAE0F0E00E944E02BFD0E0E0EF
:10028400E0938301E093840175CFFFCFAA93E8B391
:10029400EF70AE2FE881E07FEA2BE8BB8DE08A9512
:1002A400F1F7C29A8DE08A95F1F7C2988DE08A95AC
:1002B400F1F772C0AA93A881E9DFE881E295E883A7
:1002C400A881E4DF85E88A95F1F766C0AA93E881FE
:1002D400F0E0E857FE4FE081A981AE0FEBDF5980D3
:1002E400488022960895A2E0A2D0ACE0E3DFA1E02A
:1002F4009ED0E0E04E2E5E2E0895AA93A881AA30E7
:1003040011F0571448F0E0E0EA934394A42DDEDFA3
:10031400A881AA3009F440C05394C09AA881CADFC6
:10032400C0983AC0BA93AA931A93A981BA81ED915D
:10033400A983BA831E2FE03019F0A12FDEDFF5CF99
:10034400188123960895AA93E7B3E06FE7BBBA9A9E
:10035400B89AB99AC298C098C1987880E881E05850
:10036400E0938A01E881E054E0938B01A4E1B0E0DA
:100374000E94250261D060D05FD0A0E287DF88ECC4
:1003840090E00197F1F7A8E295DFA4E093DFA5E8F8
:1003940091DFA6E08FDFA7DF21960895EA93A1E01D
:1003A40095CFA0E00E947500E536A2E0FA07089513
:1003B400A0E00E947500EC39A1E0FA070895EA93E1
:1003C400A0E084DFA0917601B09177010895E8EE72
:1003D400F3E00E943302DF01EAE0F0E00E944B0206
:1003E400E858FE4F08950E943302DF01EAE0F0E08E
:1003F4000E944B02E858FE4FA0817FCFE858FE4F81
:10040400A0817BCFEAB5F0E0DF01E8EEF3E00E94E3
:100414004602DF01EAE0F0E00E944E0208950E94E5
:100424004602DF01EAE0F0E00E944E02E7CF42DF3D
:10043400A3E0B0E00C942502A0E328DF88EC90E070
:100444000197F1F70895109639F080ED97E0019740
:10045400F1F7A8951197C9F70895F195E195F04042
:1004640008950024112490E1AA0FBB1F001C111C45
:100474000E1A1F0A18F40E0E1F1E01C0A1609A95D1
:1004840099F7FD01D001089515D0EBDF0EF4E5DFF7
:100494000895E7DFFD010895E894B7FF04C0A0952F
:1004A400B09511966894F7FDD8DFDBDFFD010EF4FB
:1004B400D4DF0895E894F7FF02C0CFDF6894B7FF54
:1004C40006C0A095B095119600F8039400FA08951B
:00000001FF
